:020000040000FA
:100000000C9462000C947F000C947F000C947F0091
:100010000C947F000C947F000C947F000C94700271
:100020000C947F000C947F000C947F000C943C0394
:100030000C947F000C947F000C947F000C947F0044
:100040000C94F2020C947F000C947F000C947F00BF
:100050000C947F000C947F000C947F000C947F0024
:100060000C947F000C947F00000000002400270007
:100070002A000000000023002600290000000008DC
:10008000000201000003040700000000000000005F
:10009000010204081020408001020408102001021F
:1000A0000408102000000000250028002B00040494
:1000B0000404040404040202020202020303030310
:1000C0000303020011241FBECFEFD8E0DEBFCDBF77
:1000D00011E0A0E0B1E0EEE6FBE002C005900D9279
:1000E000AC37B107D9F721E0ACE7B1E001C01D9210
:1000F000A23AB207E1F70E9448030C94B5050C94AC
:100100000000833081F028F4813099F08230A9F02A
:1001100008958730A9F08830C9F08430B1F4809117
:1001200080008F7D03C0809180008F778093800056
:10013000089584B58F7784BD089584B58F7DFBCFF6
:100140008091B0008F778093B00008958091B000C7
:100150008F7DF9CFCF93DF93282F30E0F901E4585A
:10016000FF4F8491F901E057FF4FD491F901E25517
:10017000FF4FC491CC23A1F081110E948100EC2F8C
:10018000F0E0EE0FFF1FEE58FF4FA591B491EC91F8
:10019000ED2381E090E009F480E0DF91CF910895B4
:1001A00080E090E0FACF1F93CF93DF93282F30E0C9
:1001B000F901E458FF4F8491F901E057FF4FD491C2
:1001C000F901E255FF4FC491CC23A9F0162F8111FC
:1001D0000E948100EC2FF0E0EE0FFF1FEC55FF4F67
:1001E000A591B4918FB7F894EC91111108C0D095F6
:1001F000DE23DC938FBFDF91CF911F910895DE2B1B
:10020000F8CFCF93DF9390E0FC01E057FF4F2491AC
:1002100082559F4FFC0184918823D1F090E0880F94
:10022000991FFC01E859FF4FA591B491FC01EC55D1
:10023000FF4FC591D491623071F49FB7F8943C910F
:10024000822F809583238C93E8812E2B28839FBF58
:10025000DF91CF9108958FB7F894EC912E2B2C93CA
:100260008FBFF6CF3FB7F8948091810190918201C2
:10027000A0918301B091840126B5A89B05C02F3FB2
:1002800019F00196A11DB11D3FBFBA2FA92F982FBC
:100290008827BC01CD01620F711D811D911D42E0B7
:1002A000660F771F881F991F4A95D1F708958F927F
:1002B0009F92AF92BF92CF92DF92EF92FF920E94F5
:1002C00032016B017C0192E0892E912CA12CB12C82
:1002D0000E9432016C197D098E099F09683E7340A6
:1002E00081059105A8F328EEC20E23E0D21EE11C81
:1002F000F11C8A9489288A288B2829F0812C912C3A
:1003000054018394E5CFFF90EF90DF90CF90BF90A2
:10031000AF909F908F9008954F925F926F927F92CF
:100320008F929F92AF92BF92CF92DF92EF92FF9205
:100330000F931F93CF93DF93F90137E0389F50015C
:10034000399FB00C1124349F6001359FD00C1124CB
:10035000369F3001379F700C11243E9F40013F9F14
:10036000900C1124F12CE12CC1E0D0E061E08FE091
:100370000E94D300512C412CF201EA0DFB1DEC5FD1
:10038000FE4F6081842D0E94D3008FEF481A580AD7
:1003900087E04816510481F7512C412CF201EC0DF5
:1003A000FD1DEC5FFE4F608187E0840D0E94D3004D
:1003B0008FEF481A580A87E04816510479F70E94CF
:1003C000570130E020E04BB1CE01022E01C0880F72
:1003D0000A94EAF7809584238BB92F5F3F4F28302A
:1003E000310589F730E020E045B1CE01022E01C091
:1003F000880F0A94EAF78095842385B92F5F3F4FD1
:100400002630310589F760E08FE00E94D30061E07B
:1004100080E10E94D300512C412CF201E60DF71D22
:10042000EC5FFE4F6081842D0E94D3008FEF481A4D
:10043000580A87E04816510481F7512C412CF201EB
:10044000E80DF91DEC5FFE4F608187E0840D0E948E
:10045000D3008FEF481A580A87E04816510479F7FD
:100460000E94570130E020E04BB1CE01022E01C0C6
:10047000880F0A94EAF7809584238BB92F5F3F4F4A
:100480002830310589F730E020E045B1CE01022E59
:1004900001C0880F0A94EAF78095842385B92F5FFD
:1004A0003F4F2630310589F760E080E10E94D3009C
:1004B0008FEFE81AF80A0E151F0509F057CFDF91E4
:1004C000CF911F910F91FF90EF90DF90CF90BF9051
:1004D000AF909F908F907F906F905F904F90089516
:1004E0001F920F920FB60F9211242F933F934F93A9
:1004F0005F936F937F938F939F93AF93BF93EF938C
:10050000FF9380918A0190918B01A0918C01B09111
:100510008D01892B8A2B8B2BD1F190918501E09154
:100520008601F091870180818927808380918A01EB
:1005300090918B01A0918C01B0918D011816190634
:100540001A061B069CF480918A0190918B01A09160
:100550008C01B0918D010197A109B10980938A01A5
:1005600090938B01A0938C01B0938D01FF91EF913B
:10057000BF91AF919F918F917F916F915F914F91BB
:100580003F912F910F900FBE0F901F901895809163
:100590000001E2ECF0E0E4919FEF90930001E13084
:1005A00051F030F0E23069F060E00E94D300DECF1D
:1005B00010926E00F9CF90916F009D7F90936F0025
:1005C000F3CF909170009D7F9093700091E0909395
:1005D000B0009091B100987F94609093B100109218
:1005E000B300E2CF1F920F920FB60F9211242F93F8
:1005F0003F938F939F93AF93BF9380917D01909191
:100600007E01A0917F01B091800130917C0123E0B7
:10061000230F2D3758F50196A11DB11D20937C01A4
:1006200080937D0190937E01A0937F01B093800120
:100630008091810190918201A0918301B091840108
:100640000196A11DB11D8093810190938201A09319
:100650008301B0938401BF91AF919F918F913F919E
:100660002F910F900FBE0F901F90189526E8230F23
:100670000296A11DB11DD2CF1F920F920FB60F92FD
:100680001124109203010F900FBE0F901F90189528
:10069000789484B5826084BD84B5816084BD85B55D
:1006A000826085BD85B5816085BD80916E00816069
:1006B00080936E001092810080918100826080930F
:1006C0008100809181008160809381008091800011
:1006D0008160809380008091B10084608093B1003C
:1006E0008091B00081608093B00080917A00846036
:1006F00080937A0080917A00826080937A00809162
:100700007A00816080937A0080917A00806880937B
:100710007A001092C100C0E061E08C2F0E940101BC
:10072000CF5FCE30C9F761E08EE00E94010161E049
:100730008FE00E94010161E080E10E94010162E01E
:1007400081E10E94010161E082E10E94010162E019
:1007500083E10E940101F8941092800010928100C0
:10076000109285001092840088E09DE390938900A8
:1007700080938800809181008860809381008091BF
:10078000810085608093810080916F0082608093FA
:100790006F00789490E080E0EC0121969C012D5F41
:1007A0003F4FAC014E5F5F4F08EC10E0BE010E946E
:1007B0008C01CE012D9781F706E910E020E130E0B1
:1007C00040E150E060E170E080E190E00E948C0147
:1007D00008EC10E028E030E048E050E068E070E02D
:1007E00088E090E00E948C0106E910E020E130E012
:1007F00040E150E060E170E080E190E00E948C0117
:10080000EE24E394F12C50EC452E53E0552E612C50
:10081000712CCAE0D0E080910301811109C0809160
:10082000A0019091A10101969093A1018093A00154
:100830008091A0019091A101CC976CF080919E01D4
:1008400090919F011092A1011092A00101969093A6
:100850009F0180939E0180919E0190919F01CC9772
:100860000CF4DCC0809100018E3031F5E2ECF0E058
:10087000149117FDC6C061E08EE00E9401011123B2
:1008800009F48FC0123009F0A0C08091B100887FB8
:1008900083608093B1008FEC8093B30040928A0113
:1008A00050928B0160928C0170928D01809170004A
:1008B000826080937000A5C08F3F09F0A2C08EE0D7
:1008C00080930001E2ECF0E014911F3F09F499C01D
:1008D000113029F150F0123009F440C017FD91C0D9
:1008E00061E08EE00E940101CDCF14BC15BC84B53F
:1008F000826084BD85B5816085BDECEBF0E08491BC
:10090000E82FF0E0EE0FFF1FEC55FF4F859194911B
:10091000EEE9F0E084918093890110E0ACCF109271
:100920008000109281008091810088608093810016
:1009300080918100816080938100ECEBF0E08491F4
:10094000E82FF0E0EE0FFF1FEC55FF4F85919491DB
:10095000EEE9F0E08491809388018DCF1092B00091
:100960001092B1008091B00082608093B0008091BD
:10097000B10081608093B100ECEBF0E08491E82F4E
:10098000F0E0EE0FFF1FEC55FF4F8591949190938F
:10099000870180938601EEE9F0E0849180938501E0
:1009A0006ACF85B5887F836085BD87E687BD409225
:1009B00092015092930160929401709295018091FE
:1009C0006E00826080936E001CC0113009F095C0EB
:1009D00080918100887F81608093810089E09AE125
:1009E000909389008093880040928E0150928F01ED
:1009F000609290017092910180916F00826080936B
:100A00006F0010929F0110929E01809101019091C0
:100A100002010196909302018093010180910101EE
:100A2000909102010D9734F0E1E0F0E0F0930201C3
:100A3000E0930101009101011091020120909E01BB
:100A400030909F01C801BE010E948D056C019093FA
:100A50009D0180939C01CB01BE010E948D059C01EC
:100A600090939B0180939A01C101BE010E948D0564
:100A70004C019093990180939801CB01BE010E9493
:100A80008D055C01909397018093960181E080939E
:100A90000301232B31F480E190E090939B0180933C
:100AA0009A01EA94EF2889F561E082E10E94D3007F
:100AB000F12CE12C81E10E94AA00892B31F40F5F17
:100AC0001F4F109302010093010183E10E94AA00CD
:100AD000892B39F4EFEF2E1A3E0A30929F012092B3
:100AE0009E010DE710E09401A501B60180919A01E5
:100AF00090919B010E948C018ECE123021F0111139
:100B000080CF89E053CF89E0C7CE60E082E10E94C8
:100B1000D300EE24E394F12CCDCF97FB072E16F4EF
:100B2000009407D077FD09D00E94A10507FC05D0ED
:100B30003EF4909581959F4F0895709561957F4FF4
:100B40000895AA1BBB1B51E107C0AA1FBB1FA61714
:100B5000B70710F0A61BB70B881F991F5A95A9F766
:100B600080959095BC01CD010895F894FFCFFF05C5
:100B7000000101010101010100000101000000006C
:100B8000010100010100010101010100000100015A
:100B9000010000010101000101000101010001014A
:100BA0000101010101010000000001010101010139
:100BB0000101010101000101010101000101010028
:100BC000000101010101010000010101000001011A
:100BD000010100010100000101010101000000010B
:0A0BE0000101000000000000000009
:107E0000112484B714BE81FFF0D085E080938100F7
:107E100082E08093C00088E18093C10086E0809377
:107E2000C20080E18093C4008EE0C9D0259A86E02C
:107E300020E33CEF91E0309385002093840096BBD3
:107E4000B09BFECF1D9AA8958150A9F7CC24DD24C4
:107E500088248394B5E0AB2EA1E19A2EF3E0BF2EE7
:107E6000A2D0813461F49FD0082FAFD0023811F036
:107E7000013811F484E001C083E08DD089C08234E0
:107E800011F484E103C0853419F485E0A6D080C0E4
:107E9000853579F488D0E82EFF2485D0082F10E0AE
:107EA000102F00270E291F29000F111F8ED06801E7
:107EB0006FC0863521F484E090D080E0DECF843638
:107EC00009F040C070D06FD0082F6DD080E0C81688
:107ED00080E7D80618F4F601B7BEE895C0E0D1E017
:107EE00062D089930C17E1F7F0E0CF16F0E7DF06D8
:107EF00018F0F601B7BEE89568D007B600FCFDCFD4
:107F0000A601A0E0B1E02C9130E011968C91119780
:107F100090E0982F8827822B932B1296FA010C0160
:107F200087BEE89511244E5F5F4FF1E0A038BF0790
:107F300051F7F601A7BEE89507B600FCFDCF97BE46
:107F4000E89526C08437B1F42ED02DD0F82E2BD052
:107F50003CD0F601EF2C8F010F5F1F4F84911BD097
:107F6000EA94F801C1F70894C11CD11CFA94CF0C13
:107F7000D11C0EC0853739F428D08EE10CD085E9AC
:107F80000AD08FE07ACF813511F488E018D01DD067
:107F900080E101D065CF982F8091C00085FFFCCF94
:107FA0009093C60008958091C00087FFFCCF809118
:107FB000C00084FD01C0A8958091C6000895E0E648
:107FC000F0E098E1908380830895EDDF803219F02E
:107FD00088E0F5DFFFCF84E1DECF1F93182FE3DFCA
:107FE0001150E9F7F2DF1F91089580E0E8DFEE27F6
:047FF000FF270994CA
:027FFE00040479
:00000001FF
